:020000040800F2
:1000000080060020810100085309000851090008FA
:1000100000000000000000000000000000000000E0
:100020000000000000000000000000005709000868
:1000300000000000000000005509000859090008F0
:100040009301000893010008930100089301000840
:100050009301000893010008930100089301000830
:100060009301000893010008930100089301000820
:100070009301000893010008930100089301000810
:100080009301000893010008930100089301000800
:1000900093010008930100089301000893010008F0
:1000A00093010008930100089301000893010008E0
:1000B00093010008650900089301000893010008F6
:1000C00000F002F800F04CF812A030C808382418EC
:1000D0002D18AC4201D100F043F80FCCA246AB463C
:1000E0000CA730CF2D1B083F3F197C427F1E544484
:1000F0002D090426F441641EAC4201D300F030F80F
:100100000126334200D0FB1A3343984754465D46DC
:10011000DFE70000B0310000D0310000103A02D318
:1001200078C878C1FAD8520701D330C830C101D598
:1001300004680C6070470000704700000023002432
:1001400000250026103A01D378C1FBD8520700D30E
:1001500030C100D50B6070471FB51FBD10B510BD75
:1001600000F04DF81146FFF7F7FF00F007FC00F034
:1001700065F803B4FFF7F2FF03BC00F06BF8000072
:100180000748804707480047FEE7FEE7FEE7FEE72F
:10019000FEE7FEE704480549054A064B70470000A4
:1001A00061090008C10000088000002080060020CE
:1001B000800200208002002001E004C0091F042901
:1001C000FBD28B0701D50280801CC90700D00270CA
:1001D000704700290BD0C30702D00270401C491E93
:1001E000022904D3830702D50280801C891EE3E71D
:1001F0000022EEE70022DFE7704770477047754640
:1002000000F024F8AE46050069465346C008C00019
:10021000854618B020B5FFF7BDFF60BCB646002686
:100220000027C0C5C0C5C0C5C0C5C0C5C0C5C0C504
:10023000C0C5403D490849008D46704710B5044689
:10024000C046C0462046FFF794FF10BD00487047E7
:100250001000002001491820ABBEFEE72600020076
:1002600070470000054800687047C0461348007892
:1002700002490A68101808607047C04678000020DC
:1002800070B504467D20C0000C4E317802F006FFA8
:1002900001467748006802F001FF00F03FFB0125AE
:1002A000032C08D8002806D10025E84321462A4619
:1002B00000F006F87460284670BDC04600000020BB
:1002C000002805D40322034693430A4A9A1803E000
:1002D0000C220240064BD2188007C00E8901C9B219
:1002E0008140FF23834010689843084310607047A3
:1002F00014ED00E000E400E0F0B581B0002846D045
:100300000446534A1368012003408B4208D2136805
:100310000126B3430B431360126832408A4237D13F
:10032000009121688A074B4B10D54A0706D5072252
:1003300012021B681343474A1360464B1A68F023A6
:100340009A43A3681343434A1360424BC90722D11F
:100350003F49086801263040009A904205D9086854
:10036000B04308600868C00712D12078400706D55E
:100370000720000219688143E068084318601A6882
:100380001007810F3548022912D2044650E0012699
:10039000304601B0F0BD616803290DD01A1F022953
:1003A0000FD0012912D1126892030646F0D511E050
:1003B000032926D12A4C3BE01A6B92030646E7D567
:1003C00008E0126892010646E2D503E0126892073F
:1003D0000646DDD518680326B04308431860FFF7CA
:1003E00041FF07461C4D1B4B18680C2101406068FB
:1003F00080008142ACD0FFF735FFC01BA842F2D984
:10040000C6E70321CB031349896A0F240C40154921
:10041000095D94021A40240F134D2C5D9A4202D0BC
:1004200033049A4200E00E4802F038FE4443094B80
:1004300018680006000F0D49085CC4400C480460B1
:100440000320FFF71DFF0026304601B0F0BDC04677
:1004500000200240041002408813000000127A00BD
:10046000006CDC02B2320008A232000892320008AE
:1004700008000020F0B587B004460120002C00D110
:1004800045E204902078C007F94E05940CD07168BD
:100490000C200140042900D090E03068800303D58F
:1004A0006068002800D120E12078800721D570689D
:1004B0000007800F0ED070680C210140082900D081
:1004C0009DE00320C003716801400120C003814208
:1004D00000D094E030688007059C03D5E0680128CF
:1004E00000D002E13068F82188432169C900014346
:1004F0003160059C2078000724D42078400737D449
:100500002078C00600D4D3E005984069411D00D191
:10051000C2E0012800D030E1706B04210143716317
:10052000706B012101437163FFF79CFE0546706B00
:10053000800700D5B4E0FFF795FE411B0320022998
:10054000F5D9E4E1706AE169002900D181E0012177
:1005500008437062FFF786FE0546706A8007CCD4B8
:10056000FFF780FE401B0228F7D9032007B0F0BD3B
:10057000012003900107F0690840029006D1F0695C
:100580000843F061F0690840069006980191E14F38
:100590003868C0054AD4039804023868204338609C
:1005A000FFF760FE0546386820423FD1FFF75AFE4C
:1005B000401B6428F7D9032007B0F0BD71680140E3
:1005C000082908D10320C0037168014001200004FC
:1005D000814200D161E7616801204704002900D110
:1005E00017E1052900D12BE1012900D12CE10104FB
:1005F00032688A43326081043068884327E130687A
:10060000059CE168002936D0012108433060FFF7DE
:1006100029FE05463068800700D563E7FFF722FE14
:10062000401B0228F6D9032007B0F0BD059880686A
:10063000002800D1B6E0052800D1C9E0012800D18A
:10064000CAE0306A039988433062306A04218843E3
:10065000C5E0012188437062FFF704FE0546706A19
:10066000800700D449E7FFF7FDFD401B0228F6D9BB
:10067000032007B0F0BD012188433060FFF7F2FD91
:1006800005463068800700D433E7FFF7EBFD411BD8
:1006900003200229F5D93AE1706B04218843706385
:1006A000706BF821884305998969C900014371631A
:1006B0000598007880060BD571680C2001400C2944
:1006C00039D1706B800303D50598006A01280CD1DD
:1006D0000598446A002C00D1E1E070680C210140CB
:1006E000082905D1012C00D0C4E0049807B0F0BD62
:1006F0000120020631680492914331604706FFF7FA
:10070000B1FD0546022C0BD1049C3068384200D163
:10071000DEE0FFF7A7FD411B03200229F5D9F6E033
:100720003068384200D1BAE0FFF79CFD411B03203E
:100730000229F5D9EBE071680140082905D10320B1
:10074000C003716801408142BBD0706B0599096A92
:10075000002900D1A9E001210A04104370634C0470
:10076000FFF780FD0546706B2042B1D1FFF77AFD9F
:10077000411B03200229F6D9C9E0706B0421014313
:100780007163706B012188437063FFF76BFD054651
:10079000706B80078CD5FFF765FD411B0320022994
:1007A000F6D9B4E0306A039988433062306A042194
:1007B00088433062584CFFF755FD0546306A800784
:1007C0001DD5FFF74FFD411B0320A142F6D99EE046
:1007D000306A042101433162306A03990843306270
:1007E0004D4CFFF73FFD0546306A800707D4FFF701
:1007F00039FD401BA042F7D9032007B0F0BD029895
:100800000028059C00D07BE6F06901998843F061DF
:1008100076E6010432688A4332608004316881439D
:100820003160FFF71FFD0546059C3068384200D156
:100830003AE6FFF717FD411B03206429F5D966E06E
:10084000810432680A433260010430680843306032
:10085000FFF708FD05463068384200D024E6FFF770
:1008600001FD401B6428F6D9032007B0F0BDC04647
:10087000001002400320C20370680240F16A059C28
:10088000A36A9A42049D0DD10F221140236B994215
:1008900008D191040840E16A8842284637D10020F7
:1008A00007B0F0BD284607B0F0BD01210A0490430F
:1008B00070634C04FFF7D6FC0546706B204200D1F4
:1008C00006E7FFF7CFFC411B03200229F5D91EE004
:1008D000F06A0F218843059A116B0143F1627B2076
:1008E000C00371688143D06A0843916A0143716013
:1008F000306820433060FFF7B5FC0446306838426A
:10090000CDD1FFF7AFFC011B03200229F6D907B0B8
:10091000F0BDC0460070004088130000401E010E6C
:1009200001D0012070470749074A50600748036813
:100930000B400321890759180160002090600721AE
:1009400011607047FFFFFF0010E000E020ED00E0C5
:10095000FEE7FEE77047704780B5FFF787FC80BD74
:100960007047000003480121016003490988416084
:100970007047C046700000202448004000B5A1B078
:1009800014AD281D3021FFF735FC00261D961020E0
:10099000189001241794022014902846FFF76AFD4E
:1009A000002803D0EFF3108072B6FEE7139612967C
:1009B000119635460726109610A82946FFF79CFC8D
:1009C000002803D0EFF3108072B6FEE70F95E00425
:1009D0000D90E6490A6802430A606205E44803682C
:1009E000134303602205036893430360E205036831
:1009F00013430360A2050368934303606206036820
:100A00001343036022060368934303602302426A90
:100A100002931A4342627202436A9343436225037C
:100A2000426A2A4342627203436A93434362230445
:100A30000B93426A1A434262069672042346446A42
:100A4000944344629C040A948A6822438A60C94A97
:100A50001146103945260E960E6011461C390E6857
:100A6000042737430F600E68082705973E430E6042
:100A70000E6820273E430E600E681E430E60590329
:100A8000044606688E4306600168294301600793A7
:100A9000D90305688D43056098030C9025680543CC
:100AA00025605D042668AE43266025680B980543E3
:100AB000256023680D988343236020680A990843C2
:100AC00020606068402304939843606060688023DE
:100AD0000393984360606068A74B1840606060684B
:100AE000A64B18406060A368A5480340A360A168B6
:100AF000A44B1940A160A568A3490D40A560A66854
:100B0000A24D2E40A660E6680640E660E068184008
:100B1000E060E0680840E060E0682840E060079935
:100B200048079B4B1860FF2000029A4B1C688443C7
:100B30000C9820181860084648020190099701E0B7
:100B40000890099F1068800608D41068800605D4B4
:100B50001068800602D410688006F3D5106800067D
:100B600008D41068000605D41068000602D4106886
:100B70000006F3D50E9890811068000608D410681E
:100B8000000605D41068000602D410680006F3D5EC
:100B90006E2494811068000608D41068000605D4FD
:100BA0001068000602D410680006F3D574200A907D
:100BB00090811068000608D41068000605D41068FB
:100BC000000602D410680006F3D565200B909081D2
:100BD0001068000608D41068000605D410680006E6
:100BE00002D410680006F3D57226968110680006BC
:100BF00008D41068000605D41068000602D41068F6
:100C00000006F3D597811068000608D41068000626
:100C100005D41068000602D410680006F3D54320FE
:100C200090811068000608D41068000605D410688A
:100C3000000602D410680006F3D53B466F20908171
:100C40001168090608D41168090605D41168090657
:100C500002D411680906F3D56D21918117683F060A
:100C600008D417683F0605D417683F0602D41768F2
:100C70003F06F3D591811168090608D41168090669
:100C800005D41168090602D411680906F3D561215B
:100C9000918117683F0608D417683F0605D4176886
:100CA0003F0602D417683F06F3D5948117683F06C4
:100CB00008D417683F0605D417683F0602D41768A2
:100CC0003F06F3D56427978117683F0608D4176855
:100CD0003F0605D417683F0602D417683F06F3D5D0
:100CE0003A27978117683F0608D417683F0605D44E
:100CF00017683F0602D417683F06F3D50D250C95FB
:100D0000958117683F0608D417683F0605D4176811
:100D10003F0602D417683F06F3D50A250D95958145
:100D2000EA4F3F68012F00D0B6E10F9D002D00D0A3
:100D3000B2E1E64F7F689F43423F102F39D87F00D2
:100D40007F44BF887F00BF44270034003400340054
:100D500034002E00340034003400340034003400F9
:100D600034007505340034007D05C046141002407F
:100D7000000800481C480040FFFEFFFFFFFDFFFF8A
:100D8000FFCFFFFFFF3FFFFFFFFFFCFFFFFFF3FF72
:100D900000E100E01CE400E00020CC490860079876
:100DA0000F900698CCE60020C8490860092000F0A2
:100DB0004DFD15682D0608D415682D0605D4156857
:100DC0002D0602D415682D06F3D50E9D9581156864
:100DD0002D0608D415682D0605D415682D0602D4F5
:100DE00015682D06F3D55227978115682D0608D46E
:100DF00015682D0605D415682D0602D415682D0634
:100E0000F3D5978115682D0608D415682D0605D4ED
:100E100015682D0602D415682D06F3D54F2595814A
:100E200015682D0608D415682D0605D415682D06FD
:100E300002D415682D06F3D5978115682D0608D4C0
:100E400015682D0605D415682D0602D415682D06E3
:100E5000F3D52125958115682D0608D415682D0632
:100E600005D415682D0602D415682D06F3D5099D05
:100E7000958115682D0608D415682D0605D41568CA
:100E80002D0602D415682D06F3D5552595811568D4
:100E90002D0608D415682D0605D415682D0602D434
:100EA00015682D06F3D5948115682D0608D41568AC
:100EB0002D0605D415682D0602D415682D06F3D528
:100EC0006B25958115682D0608D415682D0605D467
:100ED00015682D0602D415682D06F3D59481156882
:100EE0002D0608D415682D0605D415682D0602D4E4
:100EF00015682D06F3D590811068000608D4106897
:100F0000000605D41068000602D410680006F3D568
:100F100077209081099F0D9D1068000608D4106805
:100F2000000605D41068000602D410680006F3D548
:100F300094811068000608D41068000605D4106873
:100F4000000602D410680006F3D5978110680006E9
:100F500008D41068000605D41068000602D4106892
:100F60000006F3D5632090811468240608D4146821
:100F7000240605D41468240602D414682406F3D584
:100F8000682494811468240608D41468240605D4BF
:100F90001468240602D414682406F3D591811468D9
:100FA000240608D41468240605D41468240602D440
:100FB00014682406F3D596811468240608D41468AE
:100FC000240605D41468240602D414682406F3D534
:100FD00091811168090608D41168090605D41168C1
:100FE000090602D411680906F3D59081106800063D
:100FF00008D41068000605D41068000602D41068F2
:101000000006F3D50A9890811068000608D410688D
:10101000000605D41068000602D410680006F3D557
:101020000B9890811068000608D41068000605D45B
:101030001068000602D410680006F3D59681106887
:10104000000608D41068000605D41068000602D413
:1010500010680006F3D50C9890811068000608D43B
:101060001068000605D41068000602D41068000657
:10107000F3D595811068000608D41068000605D4E1
:101080001068000602D410680006F3D500210F484E
:101090000F910160958155E5012F1F4600D051E564
:1010A0000F9D002D00D14DE50027084D0F972F60B3
:1010B000089B9F1F032F00D9DCE07F007F44BF887F
:1010C0007F00BF440500C903170681087000002097
:1010D000664D6F68302F01D101F0D2FA312F01D166
:1010E00001F05EFB322F00D034E261494869049B75
:1010F000584048611068000608D41068000605D4FE
:101100001068000602D410680006F3D552209081C2
:10111000099F1068000608D41068000605D41068FE
:10112000000602D410680006F3D50E9890810D9B3E
:101130001068000608D41068000605D41068000680
:1011400002D410680006F3D5442090811068000690
:1011500008D41068000605D41068000602D4106890
:101160000006F3D597811068000608D410680006C1
:1011700005D41068000602D410680006F3D5542088
:1011800090811068000608D41068000605D4106825
:10119000000602D410680006F3D54F209081106835
:1011A000000608D41068000605D41068000602D4B2
:1011B00010680006F3D5472090811168090608D40D
:1011C0001168090605D41168090602D411680906D8
:1011D000F3D590811068000608D41068000605D485
:1011E0001068000602D410680006F3D54C209081E8
:1011F0001068000608D41068000605D410680006C0
:1012000002D410680006F3D50E989081106800068D
:1012100008D41068000605D41068000602D41068CF
:101220000006F3D50C9890811068000608D4106869
:10123000000605D41068000602D410680006F3D535
:1012400093811068000601D501F0A8FA1068000625
:1012500001D501F0A3FA1068000601D501F09EFA4D
:1012600010680006EDD501F099FAC0467000002024
:101270000008004815682D0608D415682D0605D409
:1012800015682D0602D415682D06F3D50E9D95819F
:1012900015682D0608D415682D0605D415682D0689
:1012A00002D415682D06F3D55227978115682D06AF
:1012B00008D415682D0605D415682D0602D41568C6
:1012C0002D06F3D5978115682D0608D415682D06CF
:1012D00005D415682D0602D415682D06F3D54F25C3
:1012E000958115682D0608D415682D0605D4156856
:1012F0002D0602D415682D06F3D5978115682D06A5
:1013000008D415682D0605D415682D0602D4156875
:101310002D06F3D52125958115682D0608D415686D
:101320002D0605D415682D0602D415682D06F3D5B3
:10133000099D958115682D0608D415682D0605D4DC
:1013400015682D0602D415682D06F3D5552595810F
:1013500015682D0608D415682D0605D415682D06C8
:1013600002D415682D06F3D5948115682D0608D48E
:1013700015682D0605D415682D0602D415682D06AE
:10138000F3D56B25958115682D0608D415682D06B3
:1013900005D415682D0602D415682D06F3D5948161
:1013A00015682D0608D415682D0605D415682D0678
:1013B00002D415682D06F3D590811068000608D474
:1013C0001068000605D41068000602D410680006F4
:1013D000F3D577209081099F0D9D1068000608D4F1
:1013E0001068000605D41068000602D410680006D4
:1013F000F3D594811068000608D41068000605D45F
:101400001068000602D410680006F3D597811068B2
:10141000000608D41068000605D41068000602D43F
:1014200010680006F3D5632090811468240608D460
:101430001468240605D41468240602D4146824060B
:10144000F3D5682494811468240608D4146824060B
:1014500005D41468240602D414682406F3D59181B7
:101460001468240608D41468240605D414682406D5
:1014700002D414682406F3D596811468240608D48F
:101480001468240605D41468240602D414682406BB
:10149000F3D591811168090608D41168090605D4AD
:1014A0001168090602D411680906F3D59081106805
:1014B000000608D41068000605D41068000602D49F
:1014C00010680006F3D50A9890811068000608D4C9
:1014D0001068000605D41068000602D410680006E3
:1014E000F3D50B9890811068000608D410680006A8
:1014F00005D41068000602D410680006F3D5968162
:101500001068000608D41068000605D410680006AC
:1015100002D410680006F3D50C989081106800067C
:1015200008D41068000605D41068000602D41068BC
:101530000006F3D595811068000608D410680006EF
:1015400005D41068000602D410680006F3D5958112
:10155000FFF7F8FA15682D0608D415682D0605D48E
:1015600015682D0602D415682D06F3D50E9D9581BC
:1015700015682D0608D415682D0605D415682D06A6
:1015800002D415682D06F3D55227978115682D06CC
:1015900008D415682D0605D415682D0602D41568E3
:1015A0002D06F3D5978115682D0608D415682D06EC
:1015B00005D415682D0602D415682D06F3D54F25E0
:1015C000958115682D0608D415682D0605D4156873
:1015D0002D0602D415682D06F3D5978115682D06C2
:1015E00008D415682D0605D415682D0602D4156893
:1015F0002D06F3D52125958115682D0608D415688B
:101600002D0605D415682D0602D415682D06F3D5D0
:10161000099D958115682D0608D415682D0605D4F9
:1016200015682D0602D415682D06F3D5552595812C
:1016300015682D0608D415682D0605D415682D06E5
:1016400002D415682D06F3D5948115682D0608D4AB
:1016500015682D0605D415682D0602D415682D06CB
:10166000F3D56B25958115682D0608D415682D06D0
:1016700005D415682D0602D415682D06F3D594817E
:1016800015682D0608D415682D0605D415682D0695
:1016900002D415682D06F3D590811068000608D491
:1016A0001068000605D41068000602D41068000611
:1016B000F3D577209081099F0D9D1068000608D40E
:1016C0001068000605D41068000602D410680006F1
:1016D000F3D594811068000608D41068000605D47C
:1016E0001068000602D410680006F3D597811068D0
:1016F000000608D41068000605D41068000602D45D
:1017000010680006F3D5632090811468240608D47D
:101710001468240605D41468240602D41468240628
:10172000F3D5682494811468240608D41468240628
:1017300005D41468240602D414682406F3D59181D4
:101740001468240608D41468240605D414682406F2
:1017500002D414682406F3D596811468240608D4AC
:101760001468240605D41468240602D414682406D8
:10177000F3D591811168090608D41168090605D4CA
:101780001168090602D411680906F3D59081106822
:10179000000608D41068000605D41068000602D4BC
:1017A00010680006F3D50A9890811068000608D4E6
:1017B0001068000605D41068000602D41068000600
:1017C000F3D50B9890811068000608D410680006C5
:1017D00005D41068000602D410680006F3D596817F
:1017E0001068000608D41068000605D410680006CA
:1017F00002D410680006F3D50C989081106800069A
:1018000008D41068000605D41068000602D41068D9
:101810000006F3D595811068000608D4106800060C
:1018200005D41068000602D410680006F3D595812F
:1018300001F038F800207449086007980F90059867
:10184000FFF77EF90020704908600620089007988D
:101850000F90099FFFF776F96B4D6F68302F01D11C
:1018600001F024F8312F01D101F0C4F8322F00D05B
:10187000CEE066494869039B5840486110680006FD
:1018800008D41068000605D41068000602D4106859
:101890000006F3D542209081069C099F106800063F
:1018A00008D41068000605D41068000602D4106839
:1018B0000006F3D54C2090810D9D1168090608D4CF
:1018C0001168090605D41168090602D411680906D1
:1018D000F3D5552191811168090608D411680906CC
:1018E00005D41168090602D411680906F3D50E99CA
:1018F00091811168090608D41168090605D4116898
:10190000090602D411680906F3D597811168090602
:1019100008D41168090605D41168090602D41168B3
:101920000906F3D5542191811168090608D411687C
:10193000090605D41168090602D411680906F3D511
:101940004F2191811168090608D41168090605D450
:101950001168090602D411680906F3D5472191815F
:1019600013681B0608D413681B0605D413681B06EE
:1019700002D413681B06F3D591811168090608D4B7
:101980001168090605D41168090602D41168090610
:10199000F3D590811068000608D41068000605D4BD
:1019A0001068000602D410680006F3D50E989081E6
:1019B0001068000608D41068000605D410680006F8
:1019C00002D410680006F3D50C98908110680006C8
:1019D00008D41068000605D41068000602D4106808
:1019E0000006F3D595811068000608D4106800063B
:1019F00005D41068000602D410680006F3D595815E
:101A00000894FFF79FF8C0467000002000080048C7
:101A100015682D0608D415682D0605D415682D0601
:101A200002D415682D06F3D50E9D958115682D06F7
:101A300008D415682D0605D415682D0602D415683E
:101A40002D06F3D55227978115682D0608D4156801
:101A50002D0605D415682D0602D415682D06F3D57C
:101A6000978115682D0608D415682D0605D41568CC
:101A70002D0602D415682D06F3D54F2595811568DE
:101A80002D0608D415682D0605D415682D0602D438
:101A900015682D06F3D5978115682D0608D41568AD
:101AA0002D0605D415682D0602D415682D06F3D52C
:101AB0002125958115682D0608D415682D0605D4B5
:101AC00015682D0602D415682D06F3D5099D95815C
:101AD00015682D0608D415682D0605D415682D0641
:101AE00002D415682D06F3D55525958115682D0668
:101AF00008D415682D0605D415682D0602D415687E
:101B00002D06F3D5948115682D0608D415682D0689
:101B100005D415682D0602D415682D06F3D56B255E
:101B2000958115682D0608D415682D0605D415680D
:101B30002D0602D415682D06F3D5948115682D065F
:101B400008D415682D0605D415682D0602D415682D
:101B50002D06F3D590811068000608D410680006A1
:101B600005D41068000602D410680006F3D577206B
:101B70009081099F0D9D1068000608D4106800062A
:101B800005D41068000602D410680006F3D59481CD
:101B90001068000608D41068000605D41068000616
:101BA00002D410680006F3D597811068000608D4A7
:101BB0001068000605D41068000602D410680006FC
:101BC000F3D5632090811468240608D41468240691
:101BD00005D41468240602D414682406F3D56824B6
:101BE00094811468240608D41468240605D4146863
:101BF000240602D414682406F3D5918114682406BF
:101C000008D41468240605D41468240602D4146881
:101C10002406F3D596811468240608D41468240693
:101C200005D41468240602D414682406F3D59181DF
:101C30001168090608D41168090605D41168090657
:101C400002D411680906F3D590811068000608D403
:101C50001068000605D41068000602D4106800065B
:101C6000F3D50A9890811068000608D41068000621
:101C700005D41068000602D410680006F3D50B984E
:101C800090811068000608D41068000605D410681A
:101C9000000602D410680006F3D59681106800068D
:101CA00008D41068000605D41068000602D4106835
:101CB0000006F3D50C98908106991068000608D4A8
:101CC0001068000605D41068000602D410680006EB
:101CD000F3D595811068000608D41068000605D475
:101CE0001068000602D410680006F3D595810891AB
:101CF000FEF728FF7A4D6F68302F01D100F00EFFFC
:101D0000312F01D100F0C3FF322F00D0ECE0754934
:101D10004869029B584048611068000608D4106862
:101D2000000605D41068000602D410680006F3D53A
:101D30004F209081099F1168090608D4116809068F
:101D400005D41168090602D411680906F3D5522199
:101D500091810D9C1168090608D41168090605D403
:101D60001168090602D411680906F3D54121918151
:101D70001168090608D41168090605D41168090616
:101D800002D411680906F3D54E2191811168090624
:101D900008D41168090605D41168090602D411682F
:101DA0000906F3D54721918113681B0608D41368EF
:101DB0001B0605D413681B0602D413681B06F3D553
:101DC0000E9B938113681B0608D413681B0605D469
:101DD00013681B0602D413681B06F3D5978113689A
:101DE0001B0608D413681B0605D413681B0602D40F
:101DF00013681B06F3D55423938113681B0608D47C
:101E000013681B0605D413681B0602D413681B064F
:101E1000F3D590811068000608D41068000605D438
:101E20001068000602D410680006F3D5918110688E
:101E3000000608D41068000605D41068000602D415
:101E400010680006F3D591811068000608D4106868
:101E5000000605D41068000602D410680006F3D509
:101E60004C2090811068000608D41068000605D444
:101E70001068000602D410680006F3D50E98908111
:101E80001068000608D41068000605D41068000623
:101E900002D410680006F3D50C98908110680006F3
:101EA00008D41068000605D41068000602D4106833
:101EB0000006F3D594811068000601D500F090FF6C
:101EC0001068000601D500F08BFF1068000601D5F0
:101ED00000F086FF10680006EDD500F081FFC046D7
:101EE000700000200008004815682D0608D4156809
:101EF0002D0605D415682D0602D415682D06F3D5D8
:101F00000E9D958115682D0608D415682D0605D4FB
:101F100015682D0602D415682D06F3D55227978132
:101F200015682D0608D415682D0605D415682D06EC
:101F300002D415682D06F3D5978115682D0608D4AF
:101F400015682D0605D415682D0602D415682D06D2
:101F5000F3D54F25958115682D0608D415682D06F3
:101F600005D415682D0602D415682D06F3D5978182
:101F700015682D0608D415682D0605D415682D069C
:101F800002D415682D06F3D52125958115682D06F7
:101F900008D415682D0605D415682D0602D41568D9
:101FA0002D06F3D5099D958115682D0608D4156871
:101FB0002D0605D415682D0602D415682D06F3D517
:101FC0005525958115682D0608D415682D0605D46C
:101FD00015682D0602D415682D06F3D59481156871
:101FE0002D0608D415682D0605D415682D0602D4D3
:101FF00015682D06F3D56B25958115682D0608D437
:1020000015682D0605D415682D0602D415682D0611
:10201000F3D5948115682D0608D415682D0605D4CE
:1020200015682D0602D415682D06F3D59081106829
:10203000000608D41068000605D41068000602D413
:1020400010680006F3D577209081099F0D9D1068D8
:10205000000608D41068000605D41068000602D4F3
:1020600010680006F3D594811068000608D4106843
:10207000000605D41068000602D410680006F3D5E7
:1020800097811068000608D41068000605D410680F
:10209000000602D410680006F3D56320908114680E
:1020A000240608D41468240605D41468240602D42F
:1020B00014682406F3D5682494811468240608D48F
:1020C0001468240605D41468240602D4146824066F
:1020D000F3D591811468240608D41468240605D425
:1020E0001468240602D414682406F3D59681146873
:1020F000240608D41468240605D41468240602D4DF
:1021000014682406F3D591811168090608D4116872
:10211000090605D41168090602D411680906F3D529
:1021200090811068000608D41068000605D4106875
:10213000000602D410680006F3D50A989081106852
:10214000000608D41068000605D41068000602D402
:1021500010680006F3D50B9890811068000608D42B
:102160001068000605D41068000602D41068000646
:10217000F3D596811068000608D41068000605D4CF
:102180001068000602D410680006F3D50C98908100
:102190001068000608D41068000605D41068000610
:1021A00002D410680006F3D595811068000608D4A3
:1021B0001068000605D41068000602D410680006F6
:1021C000F3D5958100F00DFE734D6F68302F01D16E
:1021D00000F010FE312F01D100F0BAFE322F00D0F6
:1021E000DEE06E494869019B58404861106800066E
:1021F00008D41068000605D41068000602D41068E0
:102200000006F3D547209081099F1168090608D47C
:102210001168090605D41168090602D41168090677
:10222000F3D5522191810D9B1168090608D41168DC
:10223000090605D41168090602D411680906F3D508
:102240000E9991811168090608D41168090605D410
:102250001168090602D411680906F3D50E99918117
:102260001168090608D41168090605D41168090621
:1022700002D411680906F3D54E219181116809062F
:1022800008D41168090605D41168090602D411683A
:102290000906F3D597811168090608D41168090663
:1022A00005D41168090602D411680906F3D5542132
:1022B00091811168090608D41168090605D41168CE
:1022C000090602D411680906F3D54F2191811168DE
:1022D000090608D41168090605D41168090602D454
:1022E00011680906F3D590811168090608D41168B0
:1022F000090605D41168090602D411680906F3D548
:1023000090811068000608D41068000605D4106893
:10231000000602D410680006F3D54C2090811068A6
:10232000000608D41068000605D41068000602D420
:1023300010680006F3D50E9890811068000608D446
:102340001068000605D41068000602D41068000664
:10235000F3D50C9890811068000608D41068000628
:1023600005D41068000602D410680006F3D59381E6
:102370001068000601D500F087FE1068000601D540
:1023800000F082FE1068000601D500F07DFE1068A6
:102390000006EDD500F078FE70000020000800482F
:1023A00015682D0608D415682D0605D415682D0668
:1023B00002D415682D06F3D50E9D958115682D065E
:1023C00008D415682D0605D415682D0602D41568A5
:1023D0002D06F3D55227978115682D0608D4156868
:1023E0002D0605D415682D0602D415682D06F3D5E3
:1023F000978115682D0608D415682D0605D4156833
:102400002D0602D415682D06F3D54F259581156844
:102410002D0608D415682D0605D415682D0602D49E
:1024200015682D06F3D5978115682D0608D4156813
:102430002D0605D415682D0602D415682D06F3D592
:102440002125958115682D0608D415682D0605D41B
:1024500015682D0602D415682D06F3D5099D9581C2
:1024600015682D0608D415682D0605D415682D06A7
:1024700002D415682D06F3D55525958115682D06CE
:1024800008D415682D0605D415682D0602D41568E4
:102490002D06F3D5948115682D0608D415682D06F0
:1024A00005D415682D0602D415682D06F3D56B25C5
:1024B000958115682D0608D415682D0605D4156874
:1024C0002D0602D415682D06F3D5948115682D06C6
:1024D00008D415682D0605D415682D0602D4156894
:1024E0002D06F3D590811068000608D41068000608
:1024F00005D41068000602D410680006F3D57720D2
:102500009081099F0D9D1068000608D41068000690
:1025100005D41068000602D410680006F3D5948133
:102520001068000608D41068000605D4106800067C
:1025300002D410680006F3D597811068000608D40D
:102540001068000605D41068000602D41068000662
:10255000F3D5632090811468240608D414682406F7
:1025600005D41468240602D414682406F3D568241C
:1025700094811468240608D41468240605D41468C9
:10258000240602D414682406F3D591811468240625
:1025900008D41468240605D41468240602D41468E8
:1025A0002406F3D596811468240608D414682406FA
:1025B00005D41468240602D414682406F3D5918146
:1025C0001168090608D41168090605D411680906BE
:1025D00002D411680906F3D590811068000608D46A
:1025E0001068000605D41068000602D410680006C2
:1025F000F3D50A9890811068000608D41068000688
:1026000005D41068000602D410680006F3D50B98B4
:1026100090811068000608D41068000605D4106880
:10262000000602D410680006F3D5968110680006F3
:1026300008D41068000605D41068000602D410689B
:102640000006F3D50C9890811068000608D4106835
:10265000000605D41068000602D410680006F3D501
:1026600095811068000608D41068000605D410682B
:10267000000602D410680006F3D5958100F005FD30
:10268000DB494869049B984348611068000608D4F8
:102690001068000605D41068000602D41068000611
:1026A000F3D552209081099F0D9B1068000608D435
:1026B0001068000605D41068000602D410680006F1
:1026C000F3D50E9890811068000608D410680006B3
:1026D00005D41068000602D410680006F3D5442023
:1026E00090811068000608D41068000605D41068B0
:1026F000000602D410680006F3D597811068000622
:1027000008D41068000605D41068000602D41068CA
:102710000006F3D54F2090811068000608D4106899
:10272000000605D41068000602D410680006F3D530
:10273000462090811168090608D41168090605D45D
:102740001168090602D411680906F3D59081106852
:10275000000608D41068000605D41068000602D4EC
:1027600010680006F3D50C9890811068000608D414
:102770001068000605D41068000602D41068000630
:10278000F3D593811068000608D41068000605D4BC
:102790001068000602D410680006F3D5938181E02A
:1027A00093494869049B184348610D9910680006D5
:1027B00008D41068000605D41068000602D410681A
:1027C0000006F3D552209081099F1068000608D4B6
:1027D0001068000605D41068000602D410680006D0
:1027E000F3D50E9890811068000608D41068000692
:1027F00005D41068000602D410680006F3D5442002
:1028000090811068000608D41068000605D410688E
:10281000000602D410680006F3D597811068000600
:1028200008D41068000605D41068000602D41068A9
:102830000006F3D54F2090811068000608D4106878
:10284000000605D41068000602D410680006F3D50F
:102850004E2090811068000608D41068000605D448
:102860001068000602D410680006F3D50C98908119
:102870001068000608D41068000605D41068000629
:1028800002D410680006F3D591811068000608D4C0
:102890001068000605D41068000602D4106800060F
:1028A000F3D5918106200890FEF74CF9504948690C
:1028B000039B98434861069B1068000608D4106883
:1028C000000605D41068000602D410680006F3D58F
:1028D00042209081099F0D9C1068000608D4106862
:1028E000000605D41068000602D410680006F3D56F
:1028F0004C2090811068000608D41068000605D4AA
:102900001068000602D410680006F3D555209081A7
:102910001068000608D41068000605D41068000688
:1029200002D410680006F3D50E9890811068000656
:1029300008D41068000605D41068000602D4106898
:102940000006F3D597811068000608D410680006C9
:1029500005D41068000602D410680006F3D54F2095
:1029600090811068000608D41068000605D410682D
:10297000000602D410680006F3D546209081116845
:10298000090608D41168090605D41168090602D49D
:1029900011680906F3D590811068000608D4106804
:1029A000000605D41068000602D410680006F3D5AE
:1029B0000C9890811068000608D41068000605D4B1
:1029C0001068000602D410680006F3D594811068E0
:1029D000000608D41068000605D41068000602D46A
:1029E00010680006F3D594810893FEF7ABF8C04653
:1029F00000080048FD494869039B184348610D9B46
:102A00001068000608D41068000605D41068000697
:102A100002D410680006F3D5422090810699099FE0
:102A20001068000608D41068000605D41068000677
:102A300002D410680006F3D54C209081106800067F
:102A400008D41068000605D41068000602D4106887
:102A50000006F3D5552090811068000608D4106850
:102A6000000605D41068000602D410680006F3D5ED
:102A70000E9890811068000608D41068000605D4EE
:102A80001068000602D410680006F3D5978110681C
:102A9000000608D41068000605D41068000602D4A9
:102AA00010680006F3D54F2090811068000608D406
:102AB0001068000605D41068000602D410680006ED
:102AC000F3D54E2090811068000608D410680006E7
:102AD00005D41068000602D410680006F3D50C98DF
:102AE00090811068000608D41068000605D41068AC
:102AF000000602D410680006F3D593811068000622
:102B000008D41068000605D41068000602D41068C6
:102B10000006F3D593810891FEF714F8B34948698C
:102B2000B34B184048611068000608D410680006CE
:102B300005D41068000602D410680006F3D54F20B3
:102B40009081099F0D9B1168090608D41168090638
:102B500005D41168090602D411680906F3D552217B
:102B600091811168090608D41168090605D4116815
:102B7000090602D411680906F3D541219181116833
:102B8000090608D41168090605D41168090602D49B
:102B900011680906F3D54E2191811168090608D400
:102BA0001168090605D41168090602D411680906DE
:102BB000F3D5472191811168090608D411680906E7
:102BC00005D41168090602D411680906F3D50E99D7
:102BD00091811168090608D41168090605D41168A5
:102BE000090602D411680906F3D597811168090610
:102BF00008D41168090605D41168090602D41168C1
:102C00000906F3D590811068000608D41068000604
:102C100005D41068000602D410680006F3D54620DB
:102C200090811168090608D41168090605D4116855
:102C3000090602D411680906F3D5908110680006D0
:102C400008D41068000605D41068000602D4106885
:102C50000006F3D50C9890811068000608D410681F
:102C6000000605D41068000602D410680006F3D5EB
:102C700093811068000608D41068000605D4106817
:102C8000000602D410680006F3D59381A9E05749E5
:102C90004869029B18434861099F0D9C1068000613
:102CA00008D41068000605D41068000602D4106825
:102CB0000006F3D54F2090811168090608D41168E9
:102CC000090605D41168090602D411680906F3D56E
:102CD000522191811168090608D41168090605D4AA
:102CE0001168090602D411680906F3D541219181C2
:102CF0001168090608D41168090605D41168090687
:102D000002D411680906F3D54E21918113681B0680
:102D100008D413681B0605D413681B0602D4136875
:102D20001B06F3D54723938113681B0608D4136849
:102D30001B0605D413681B0602D413681B06F3D5C3
:102D40000E9B938113681B0608D413681B0605D4D9
:102D500013681B0602D413681B06F3D5978113680A
:102D60001B0608D413681B0605D413681B0602D47F
:102D700013681B06F3D590811068000608D410680C
:102D8000000605D41068000602D410680006F3D5CA
:102D900091811068000608D41068000605D41068F8
:102DA000000602D410680006F3D50C9890811068D4
:102DB000000608D41068000605D41068000602D486
:102DC00010680006F3D594811068000608D41068D6
:102DD000000605D41068000602D410680006F3D57A
:102DE000948105980890FDF7ADFEC04600080048A4
:102DF000FFFEFFFFA7494869A74B184048611068CC
:102E0000000608D41068000605D41068000602D435
:102E100010680006F3D547209081099F0D9B10682C
:102E2000000608D41068000605D41068000602D415
:102E300010680006F3D5522090811068000608D46F
:102E40001068000605D41068000602D41068000659
:102E5000F3D50E9890811068000608D4106800061B
:102E600005D41068000602D410680006F3D50E9849
:102E700090811068000608D41068000605D4106818
:102E8000000602D410680006F3D54E209081106829
:102E9000000608D41068000605D41068000602D4A5
:102EA00010680006F3D597811068000608D41068F2
:102EB000000605D41068000602D410680006F3D599
:102EC0004F2090811068000608D41068000605D4D1
:102ED0001068000602D410680006F3D546209081E1
:102EE0001168090608D41168090605D41168090695
:102EF00002D411680906F3D590811068000608D441
:102F00001068000605D41068000602D41068000698
:102F1000F3D50C9890811068000608D4106800065C
:102F200005D41068000602D410680006F3D593811A
:102F30001068000600D5A7E01068000600D5A3E0E1
:102F40001068000600D59FE010680006F0D59BE0F1
:102F500050494869019B184348610D9B1068000661
:102F600008D41068000605D41068000602D4106862
:102F70000006F3D547209081099F1068000608D409
:102F80001068000605D41068000602D41068000618
:102F9000F3D5522090811068000608D4106800060E
:102FA00005D41068000602D410680006F3D50E9808
:102FB00090811068000608D41068000605D41068D7
:102FC000000602D410680006F3D50E9890811068B0
:102FD000000608D41068000605D41068000602D464
:102FE00010680006F3D54E2090811168090608D4B8
:102FF0001168090605D41168090602D4116809068A
:10300000F3D597811168090608D41168090605D41B
:103010001168090602D411680906F3D54F21918180
:103020001168090608D41168090605D41168090653
:1030300002D411680906F3D590811068000608D4FF
:103040001068000605D41068000602D41068000657
:10305000F3D50C9890811068000608D4106800061B
:1030600005D41068000602D410680006F3D59381D9
:103070001068000608D41068000605D41068000621
:1030800002D410680006F3D5938109200890FDF75B
:1030900059FDC04600080048FFFDFFFF43088B4272
:1030A0001AD3002203098B4279D3030A8B425ED3E1
:1030B000030B8B4242D3030C8B4227D30902FF221E
:1030C00012BA030C8B4202D31212090203D0030B73
:1030D0008B4233D31AE0D3E0411A8041401C704741
:1030E00003460B4371D443088B42F5D300220309F6
:1030F0008B4254D3030A8B4239D3030B8B421DD32B
:10310000030C8B4202D394466EE0090AC30B8B4238
:1031100001D3CB03C01A5241830B8B4201D38B03E3
:10312000C01A5241430B8B4201D34B03C01A524188
:10313000030B8B4201D30B03C01A5241C30A8B42CB
:1031400001D3CB02C01A5241830A8B4201D38B02B6
:10315000C01A5241430A8B4201D34B02C01A52415A
:10316000030A8B4201D30B02C01A5241CDD2C309CC
:103170008B4201D3CB01C01A524183098B4201D348
:103180008B01C01A524143098B4201D34B01C01A33
:10319000524103098B4201D30B01C01A5241C308AB
:1031A0008B4201D3CB00C01A524183088B4201D31A
:1031B0008B00C01A524143088B4201D34B00C01A06
:1031C0005241411A524110007047CA0F00D0494283
:1031D000031000D34042534000229C4603098B4217
:1031E0002DD3030A8B4212D38901FC2212BA030A9F
:1031F0008B420CD3890192118B4208D38901921121
:103200008B4204D3890137D0921100E08909C309A8
:103210008B4201D3CB01C01A524183098B4201D3A7
:103220008B01C01A524143098B4201D34B01C01A92
:10323000524103098B4201D30B01C01A5241C3080A
:103240008B4201D3CB00C01A524183088B4201D379
:103250008B00C01A5241D9D243088B4201D34B0094
:10326000C01A5241411A00D20146524110466346EB
:103270005B1000D34042704763465B1000D340426E
:1032800001B50021004201D0C9430846C046C046EE
:1032900002BD000000000000000001020304060758
:1032A000080902030405060708090A0B0C0D0E0F96
:1032B00010100102030405060708090A0B0C0D0E85
:1032C0000F100000E832000800000020100000008D
:1032D0001C010008F83200081000002070060000F1
:1032E0003C01000800000000010000000400000094
:0832F00000127A00000000004A
:04000005080000C12E
:00000001FF
